{
  "address": "0x9fE46736679d2D9a65F0992F2272dE9f3c7fa6e0",
  "abi": [
    {
      "inputs": [],
      "name": "complete",
      "outputs": [],
      "stateMutability": "payable",
      "type": "function"
    },
    {
      "inputs": [],
      "name": "completed",
      "outputs": [
        {
          "internalType": "bool",
          "name": "",
          "type": "bool"
        }
      ],
      "stateMutability": "view",
      "type": "function"
    },
    {
      "inputs": [
        {
          "internalType": "uint256",
          "name": "_claimtime",
          "type": "uint256"
        },
        {
          "internalType": "uint256",
          "name": "_withdrawtime",
          "type": "uint256"
        }
      ],
      "name": "resetStaker",
      "outputs": [],
      "stateMutability": "nonpayable",
      "type": "function"
    },
    {
      "inputs": [
        {
          "internalType": "address payable",
          "name": "stakerContractAddress",
          "type": "address"
        }
      ],
      "name": "setStakerContractAddress",
      "outputs": [],
      "stateMutability": "nonpayable",
      "type": "function"
    },
    {
      "inputs": [],
      "name": "staker",
      "outputs": [
        {
          "internalType": "contract Staker",
          "name": "",
          "type": "address"
        }
      ],
      "stateMutability": "view",
      "type": "function"
    }
  ],
  "transactionHash": "0xc77f0fd3b4e0d67deb5a5be75eb5e8f79cf89445fc1858e5d6a5983dc5b4b2e7",
  "args": [],
  "solcInputHash": "461891161f1f94a21ae356d93d0061d6",
  "bytecode": "0x608060405234801561001057600080fd5b50610345806100206000396000f3fe60806040526004361061004a5760003560e01c8063522e11771461004f578063561e254c146100695780635ebaf1db146100895780639d9a7fe9146100c6578063fb3f4924146100f7575b600080fd5b6100676000805460ff60a01b1916600160a01b179055565b005b34801561007557600080fd5b506100676100843660046102ee565b610134565b34801561009557600080fd5b506000546100a9906001600160a01b031681565b6040516001600160a01b0390911681526020015b60405180910390f35b3480156100d257600080fd5b506000546100e790600160a01b900460ff1681565b60405190151581526020016100bd565b34801561010357600080fd5b506100676101123660046102c0565b600080546001600160a01b0319166001600160a01b0392909216919091179055565b6000805460ff60a01b1916600160a01b179055610155565b60405180910390fd5b6000805460ff60a01b19811690915560405163034b90e560e31b8152600481018390526001600160a01b0390911690631a5c872890602401600060405180830381600087803b1580156101a757600080fd5b505af11580156101bb573d6000803e3d6000fd5b5050600054604051636f565c8360e11b8152600481018690526001600160a01b03909116925063deacb9069150602401600060405180830381600087803b15801561020557600080fd5b505af1158015610219573d6000803e3d6000fd5b5050600080546040519193508392506001600160a01b03169047908381818185875af1925050503d806000811461026c576040519150601f19603f3d011682016040523d82523d6000602084013e610271565b606091505b5091509150816102ba5760405162461bcd60e51b81526020600482015260146024820152732330b4b632b2103a379039b2b7321022ba3432b960611b604482015260640161014c565b50505050565b6000602082840312156102d1578081fd5b81356001600160a01b03811681146102e7578182fd5b9392505050565b60008060408385031215610300578081fd5b5050803592602090910135915056fea264697066735822122067f2572bf54c899eb3c83657cb526c33d81dda7641729eea454893f2690ee15764736f6c63430008040033",
  "devdoc": {
    "kind": "dev",
    "methods": {},
    "version": 1
  },
  "userdoc": {
    "kind": "user",
    "methods": {},
    "version": 1
  },
  "storageLayout": {
    "storage": [
      {
        "astId": 5,
        "contract": "contracts/ExampleExternalContract.sol:ExampleExternalContract",
        "label": "staker",
        "offset": 0,
        "slot": "0",
        "type": "t_contract(Staker)503"
      },
      {
        "astId": 7,
        "contract": "contracts/ExampleExternalContract.sol:ExampleExternalContract",
        "label": "completed",
        "offset": 20,
        "slot": "0",
        "type": "t_bool"
      }
    ],
    "types": {
      "t_bool": {
        "encoding": "inplace",
        "label": "bool",
        "numberOfBytes": "1"
      },
      "t_contract(Staker)503": {
        "encoding": "inplace",
        "label": "contract Staker",
        "numberOfBytes": "20"
      }
    }
  }
}