{
  "address": "0xCf7Ed3AccA5a467e9e704C703E8D87F634fB0Fc9",
  "abi": [
    {
      "inputs": [
        {
          "internalType": "address",
          "name": "exampleExternalContractAddress",
          "type": "address"
        }
      ],
      "stateMutability": "nonpayable",
      "type": "constructor"
    },
    {
      "anonymous": false,
      "inputs": [
        {
          "indexed": true,
          "internalType": "address",
          "name": "sender",
          "type": "address"
        },
        {
          "indexed": false,
          "internalType": "uint256",
          "name": "amount",
          "type": "uint256"
        }
      ],
      "name": "Execute",
      "type": "event"
    },
    {
      "anonymous": false,
      "inputs": [
        {
          "indexed": false,
          "internalType": "address",
          "name": "",
          "type": "address"
        },
        {
          "indexed": false,
          "internalType": "uint256",
          "name": "",
          "type": "uint256"
        }
      ],
      "name": "Received",
      "type": "event"
    },
    {
      "anonymous": false,
      "inputs": [
        {
          "indexed": true,
          "internalType": "address",
          "name": "sender",
          "type": "address"
        },
        {
          "indexed": false,
          "internalType": "uint256",
          "name": "amount",
          "type": "uint256"
        }
      ],
      "name": "Stake",
      "type": "event"
    },
    {
      "inputs": [
        {
          "internalType": "address",
          "name": "",
          "type": "address"
        }
      ],
      "name": "balances",
      "outputs": [
        {
          "internalType": "uint256",
          "name": "",
          "type": "uint256"
        }
      ],
      "stateMutability": "view",
      "type": "function"
    },
    {
      "inputs": [],
      "name": "claimDeadline",
      "outputs": [
        {
          "internalType": "uint256",
          "name": "",
          "type": "uint256"
        }
      ],
      "stateMutability": "view",
      "type": "function"
    },
    {
      "inputs": [],
      "name": "claimPeriodLeft",
      "outputs": [
        {
          "internalType": "uint256",
          "name": "claimPeriodLeft",
          "type": "uint256"
        }
      ],
      "stateMutability": "view",
      "type": "function"
    },
    {
      "inputs": [],
      "name": "claimTime",
      "outputs": [
        {
          "internalType": "uint256",
          "name": "",
          "type": "uint256"
        }
      ],
      "stateMutability": "view",
      "type": "function"
    },
    {
      "inputs": [],
      "name": "contractWhitelist",
      "outputs": [
        {
          "internalType": "address",
          "name": "",
          "type": "address"
        }
      ],
      "stateMutability": "view",
      "type": "function"
    },
    {
      "inputs": [],
      "name": "currentBlock",
      "outputs": [
        {
          "internalType": "uint256",
          "name": "",
          "type": "uint256"
        }
      ],
      "stateMutability": "view",
      "type": "function"
    },
    {
      "inputs": [
        {
          "internalType": "address",
          "name": "",
          "type": "address"
        }
      ],
      "name": "depositTimestamps",
      "outputs": [
        {
          "internalType": "uint256",
          "name": "",
          "type": "uint256"
        }
      ],
      "stateMutability": "view",
      "type": "function"
    },
    {
      "inputs": [],
      "name": "exampleExternalContract",
      "outputs": [
        {
          "internalType": "contract ExampleExternalContract",
          "name": "",
          "type": "address"
        }
      ],
      "stateMutability": "view",
      "type": "function"
    },
    {
      "inputs": [],
      "name": "execute",
      "outputs": [],
      "stateMutability": "nonpayable",
      "type": "function"
    },
    {
      "inputs": [],
      "name": "exponentMultiplier",
      "outputs": [
        {
          "internalType": "uint256",
          "name": "",
          "type": "uint256"
        }
      ],
      "stateMutability": "view",
      "type": "function"
    },
    {
      "inputs": [],
      "name": "killTime",
      "outputs": [],
      "stateMutability": "nonpayable",
      "type": "function"
    },
    {
      "inputs": [
        {
          "internalType": "uint256",
          "name": "_seconds",
          "type": "uint256"
        }
      ],
      "name": "resetClaimDeadline",
      "outputs": [],
      "stateMutability": "nonpayable",
      "type": "function"
    },
    {
      "inputs": [
        {
          "internalType": "uint256",
          "name": "_seconds",
          "type": "uint256"
        }
      ],
      "name": "resetWithdrawalDeadline",
      "outputs": [],
      "stateMutability": "nonpayable",
      "type": "function"
    },
    {
      "inputs": [],
      "name": "rewardRatePerBlock",
      "outputs": [
        {
          "internalType": "uint256",
          "name": "",
          "type": "uint256"
        }
      ],
      "stateMutability": "view",
      "type": "function"
    },
    {
      "inputs": [],
      "name": "stake",
      "outputs": [],
      "stateMutability": "payable",
      "type": "function"
    },
    {
      "inputs": [],
      "name": "withdraw",
      "outputs": [],
      "stateMutability": "nonpayable",
      "type": "function"
    },
    {
      "inputs": [],
      "name": "withdrawTime",
      "outputs": [
        {
          "internalType": "uint256",
          "name": "",
          "type": "uint256"
        }
      ],
      "stateMutability": "view",
      "type": "function"
    },
    {
      "inputs": [],
      "name": "withdrawalDeadline",
      "outputs": [
        {
          "internalType": "uint256",
          "name": "",
          "type": "uint256"
        }
      ],
      "stateMutability": "view",
      "type": "function"
    },
    {
      "inputs": [],
      "name": "withdrawalTimeLeft",
      "outputs": [
        {
          "internalType": "uint256",
          "name": "withdrawalTimeLeft",
          "type": "uint256"
        }
      ],
      "stateMutability": "view",
      "type": "function"
    },
    {
      "stateMutability": "payable",
      "type": "receive"
    }
  ],
  "transactionHash": "0xa0fe4c9c8246ca25d9c2e642af03083573f6fd26bcbeafbe45c31566bf3a4116",
  "args": [
    "0x9fE46736679d2D9a65F0992F2272dE9f3c7fa6e0"
  ],
  "solcInputHash": "461891161f1f94a21ae356d93d0061d6",
  "bytecode": "0x60806040526078600381905562000018906001620000ff565b620000249042620000e4565b60045560f060058190556200003b906001620000ff565b620000479042620000e4565b600655600060075560026008553480156200006157600080fd5b5060405162000f0d38038062000f0d8339810160408190526200008491620000b4565b600080546001600160a01b039092166001600160a01b031992831681179091556009805490921617905562000137565b600060208284031215620000c6578081fd5b81516001600160a01b0381168114620000dd578182fd5b9392505050565b60008219821115620000fa57620000fa62000121565b500190565b60008160001904831182151516156200011c576200011c62000121565b500290565b634e487b7160e01b600052601160045260246000fd5b610dc680620001476000396000f3fe6080604052600436106101185760003560e01c806361461954116100a0578063be31069711610064578063be310697146102f4578063deacb9061461030a578063e12ed13c1461032a578063e5f6845414610340578063f78941761461036057600080fd5b8063614619541461025f57806390870492146102745780639bdb8691146102905780639f75f227146102a6578063bcb8e813146102de57600080fd5b806327e235e3116100e757806327e235e3146101e95780633a4b66f1146102165780633ba86c441461021e5780633ccfd60b1461023457806345cb3dde1461024957600080fd5b80631a5c87281461015c578063240be9441461017e57806324a5a2ce146101be57806327b3bf11146101d357600080fd5b3661015757604080513381523460208201527f88a5966d370b9919b20f3e2c13ff65706f196a4e32cc2c12bf57088f88525874910160405180910390a1005b600080fd5b34801561016857600080fd5b5061017c610177366004610ae2565b610375565b005b34801561018a57600080fd5b506101ab610199366004610a94565b60026020526000908152604090205481565b6040519081526020015b60405180910390f35b3480156101ca57600080fd5b506101ab61041c565b3480156101df57600080fd5b506101ab60055481565b3480156101f557600080fd5b506101ab610204366004610a94565b60016020526000908152604090205481565b61017c610440565b34801561022a57600080fd5b506101ab60065481565b34801561024057600080fd5b5061017c610566565b34801561025557600080fd5b506101ab60035481565b34801561026b57600080fd5b5061017c610849565b34801561028057600080fd5b506101ab67016345785d8a000081565b34801561029c57600080fd5b506101ab60085481565b3480156102b257600080fd5b506000546102c6906001600160a01b031681565b6040516001600160a01b0390911681526020016101b5565b3480156102ea57600080fd5b5061017c42600755565b34801561030057600080fd5b506101ab60045481565b34801561031657600080fd5b5061017c610325366004610ae2565b6109d7565b34801561033657600080fd5b506101ab60075481565b34801561034c57600080fd5b506009546102c6906001600160a01b031681565b34801561036c57600080fd5b506101ab610a75565b60016000610381610a75565b905081156103b55780156103b05760405162461bcd60e51b81526004016103a790610bfb565b60405180910390fd5b6103d5565b600081116103d55760405162461bcd60e51b81526004016103a790610afa565b6009546001600160a01b031633146103ff5760405162461bcd60e51b81526004016103a790610b7d565b61040a836001610d44565b6104149042610c3f565b600455505050565b6000600654421061042d5750600090565b4260065461043b9190610d63565b905090565b60008061044b610a75565b905081156104765780156104715760405162461bcd60e51b81526004016103a790610bfb565b610496565b600081116104965760405162461bcd60e51b81526004016103a790610afa565b6000806104a161041c565b905081156104cc5780156104c75760405162461bcd60e51b81526004016103a790610b3c565b6104ec565b600081116104ec5760405162461bcd60e51b81526004016103a790610bc4565b33600090815260016020526040902054610507903490610c3f565b336000818152600160209081526040808320949094556002905282902042905590517febedb8b3c678666e7f36970bc8f57abf6d8fa2e828c0da91ea5b75bf68ed101a906105589034815260200190565b60405180910390a250505050565b60016000610572610a75565b9050811561059d5780156105985760405162461bcd60e51b81526004016103a790610bfb565b6105bd565b600081116105bd5760405162461bcd60e51b81526004016103a790610afa565b6000806105c861041c565b905081156105f35780156105ee5760405162461bcd60e51b81526004016103a790610b3c565b610613565b600081116106135760405162461bcd60e51b81526004016103a790610bc4565b60008060009054906101000a90046001600160a01b03166001600160a01b0316639d9a7fe96040518163ffffffff1660e01b815260040160206040518083038186803b15801561066257600080fd5b505afa158015610676573d6000803e3d6000fd5b505050506040513d601f19601f8201168201806040525081019061069a9190610ac2565b905080156106e55760405162461bcd60e51b81526020600482015260186024820152775374616b6520616c726561647920636f6d706c657465642160401b60448201526064016103a7565b336000908152600160205260409020546107415760405162461bcd60e51b815260206004820181905260248201527f596f752068617665206e6f2062616c616e636520746f2077697468647261772160448201526064016103a7565b3360009081526001602090815260408083205460029092528220549091906107699042610d63565b905060006008548261077b9190610c9a565b9050600061079167016345785d8a000083610d44565b61079b9085610c3f565b33600081815260016020526040808220829055519293509182919084908381818185875af1925050503d80600081146107f0576040519150601f19603f3d011682016040523d82523d6000602084013e6107f5565b606091505b50915091508161083c5760405162461bcd60e51b815260206004820152601260248201527108cc2d2d8cac840e8de40e6cadcc8408aa8960731b60448201526064016103a7565b5050505050505050505050565b6001600061085561041c565b9050811561088057801561087b5760405162461bcd60e51b81526004016103a790610b3c565b6108a0565b600081116108a05760405162461bcd60e51b81526004016103a790610bc4565b60008060009054906101000a90046001600160a01b03166001600160a01b0316639d9a7fe96040518163ffffffff1660e01b815260040160206040518083038186803b1580156108ef57600080fd5b505afa158015610903573d6000803e3d6000fd5b505050506040513d601f19601f820116820180604052508101906109279190610ac2565b905080156109725760405162461bcd60e51b81526020600482015260186024820152775374616b6520616c726561647920636f6d706c657465642160401b60448201526064016103a7565b600080546040805163522e117760e01b8152905147936001600160a01b039093169263522e11779247926004808301939282900301818588803b1580156109b857600080fd5b505af11580156109cc573d6000803e3d6000fd5b505050505050505050565b600160006109e361041c565b90508115610a0e578015610a095760405162461bcd60e51b81526004016103a790610b3c565b610a2e565b60008111610a2e5760405162461bcd60e51b81526004016103a790610bc4565b6009546001600160a01b03163314610a585760405162461bcd60e51b81526004016103a790610b7d565b610a63836001610d44565b610a6d9042610c3f565b600655505050565b60006004544210610a865750600090565b4260045461043b9190610d63565b600060208284031215610aa5578081fd5b81356001600160a01b0381168114610abb578182fd5b9392505050565b600060208284031215610ad3578081fd5b81518015158114610abb578182fd5b600060208284031215610af3578081fd5b5035919050565b60208082526022908201527f5769746864726177616c20706572696f6420686173206265656e207265616368604082015261195960f21b606082015260800190565b60208082526021908201527f436c61696d20646561646c696e65206973206e6f7420726561636865642079656040820152601d60fa1b606082015260800190565b60208082526027908201527f596f7520617265206e6f7420746865206578616d706c6545787465726e616c436040820152661bdb9d1c9858dd60ca1b606082015260800190565b6020808252601f908201527f436c61696d20646561646c696e6520686173206265656e207265616368656400604082015260600190565b60208082526024908201527f5769746864726177616c20706572696f64206973206e6f742072656163686564604082015263081e595d60e21b606082015260800190565b60008219821115610c5257610c52610d7a565b500190565b600181815b80851115610c92578160001904821115610c7857610c78610d7a565b80851615610c8557918102915b93841c9390800290610c5c565b509250929050565b6000610abb8383600082610cb057506001610d3e565b81610cbd57506000610d3e565b8160018114610cd35760028114610cdd57610cf9565b6001915050610d3e565b60ff841115610cee57610cee610d7a565b50506001821b610d3e565b5060208310610133831016604e8410600b8410161715610d1c575081810a610d3e565b610d268383610c57565b8060001904821115610d3a57610d3a610d7a565b0290505b92915050565b6000816000190483118215151615610d5e57610d5e610d7a565b500290565b600082821015610d7557610d75610d7a565b500390565b634e487b7160e01b600052601160045260246000fdfea2646970667358221220f74a8185c98f5a521d43d631fea587c57eaa676a28b6633a9fa6b5f948bcdbdb64736f6c63430008040033",
  "devdoc": {
    "kind": "dev",
    "methods": {},
    "version": 1
  },
  "userdoc": {
    "kind": "user",
    "methods": {},
    "version": 1
  },
  "storageLayout": {
    "storage": [
      {
        "astId": 89,
        "contract": "contracts/Staker.sol:Staker",
        "label": "exampleExternalContract",
        "offset": 0,
        "slot": "0",
        "type": "t_contract(ExampleExternalContract)82"
      },
      {
        "astId": 93,
        "contract": "contracts/Staker.sol:Staker",
        "label": "balances",
        "offset": 0,
        "slot": "1",
        "type": "t_mapping(t_address,t_uint256)"
      },
      {
        "astId": 97,
        "contract": "contracts/Staker.sol:Staker",
        "label": "depositTimestamps",
        "offset": 0,
        "slot": "2",
        "type": "t_mapping(t_address,t_uint256)"
      },
      {
        "astId": 103,
        "contract": "contracts/Staker.sol:Staker",
        "label": "withdrawTime",
        "offset": 0,
        "slot": "3",
        "type": "t_uint256"
      },
      {
        "astId": 112,
        "contract": "contracts/Staker.sol:Staker",
        "label": "withdrawalDeadline",
        "offset": 0,
        "slot": "4",
        "type": "t_uint256"
      },
      {
        "astId": 115,
        "contract": "contracts/Staker.sol:Staker",
        "label": "claimTime",
        "offset": 0,
        "slot": "5",
        "type": "t_uint256"
      },
      {
        "astId": 124,
        "contract": "contracts/Staker.sol:Staker",
        "label": "claimDeadline",
        "offset": 0,
        "slot": "6",
        "type": "t_uint256"
      },
      {
        "astId": 127,
        "contract": "contracts/Staker.sol:Staker",
        "label": "currentBlock",
        "offset": 0,
        "slot": "7",
        "type": "t_uint256"
      },
      {
        "astId": 130,
        "contract": "contracts/Staker.sol:Staker",
        "label": "exponentMultiplier",
        "offset": 0,
        "slot": "8",
        "type": "t_uint256"
      },
      {
        "astId": 132,
        "contract": "contracts/Staker.sol:Staker",
        "label": "contractWhitelist",
        "offset": 0,
        "slot": "9",
        "type": "t_address"
      }
    ],
    "types": {
      "t_address": {
        "encoding": "inplace",
        "label": "address",
        "numberOfBytes": "20"
      },
      "t_contract(ExampleExternalContract)82": {
        "encoding": "inplace",
        "label": "contract ExampleExternalContract",
        "numberOfBytes": "20"
      },
      "t_mapping(t_address,t_uint256)": {
        "encoding": "mapping",
        "key": "t_address",
        "label": "mapping(address => uint256)",
        "numberOfBytes": "32",
        "value": "t_uint256"
      },
      "t_uint256": {
        "encoding": "inplace",
        "label": "uint256",
        "numberOfBytes": "32"
      }
    }
  }
}